:020000040000FA
:100000000A128A11F82F00308A000408840A820735
:100010000034C0340034F9340034A4340034B03433
:100020000034993400349234003482340034F8348B
:0A00300000348034003490340034B2
:10004A00031083120313370D380DB9003908BF00A6
:10005A003F08031D312832283B280030B800003001
:10006A00B7000030B6000030B500A0283508B90046
:10007A003608BA003708BB003808BC001F30031026
:10008A00BC0CBB0CBA0CB90CFF3E031D4428390842
:10009A00BD003D08BE00B717FF30B505FF30B605F5
:1000AA00FF30B7050030B8059630BF02BF1F5E2883
:1000BA005F2879283F08803A973E03186528662802
:1000CA006728322801300310B80CB70CB60CB50CEF
:1000DA00FF3E031D68280130B9003908BF07031D18
:1000EA00772878286728902820303F02031C7E282A
:1000FA007F288B2832280130B9000310B50DB60DC0
:10010A00B70DB80DB90B82280130BF023F08031D95
:10011A008F28902880283E08031994289528A0281B
:10012A00B509B609B709B809B50A0319B60A031910
:10013A00B70A0319B80A080000307005F800003041
:10014A007105F90080307205FA007F307305FB00F3
:10015A007B087A0479047804031DB428B528BD28DD
:10016A000030F3000030F2000030F1000030F000FF
:10017A0000307405F80000307505F9008030760506
:10018A00FA007F307705FB007B087A04790478044B
:10019A00031DD028D128D9280030F7000030F600F6
:1001AA000030F5000030F400F31FDC28DD280129B7
:1001BA000030F8000030F9000030FA008030FB000F
:1001CA007008F8027108031C710FEC28ED28F90277
:1001DA007208031C720FF228F328FA027308031C30
:1001EA00730FF828F928FB027B08F3007A08F2005B
:1001FA007908F1007808F000F71F04290529292950
:10020A000030F8000030F9000030FA008030FB00BE
:10021A007408F8027508031C750F14291529F902C8
:10022A007608031C760F1A291B29FA027708031C81
:10023A00770F20292129FB027B08F7007A08F600AC
:10024A007908F5007808F4008030F3068030F70664
:10025A0077087302031D3B2976087202031D3B29A6
:10026A0075087102031D3B297408700203183E29A0
:10027A003F2941290310422903140800831203135A
:10028A00C800480803194A294B295F29C31F4E2968
:10029A004F295F294009CA004109CB004209CC0015
:1002AA004309CD00CA0A0319CB0A0319CC0A031958
:1002BA00CD0A67294308CD004208CC004108CB008B
:1002CA004008CA004308420441044004031D6E2941
:1002DA006F2978290030C3000030C2000030C10005
:1002EA000030C000FE299630C4004408C9008A299B
:1002FA000130C4004408C90701300310CD0CCC0CEE
:10030A00CB0CCA0CFF3E031D8229FE304D05031D8E
:10031A008F2990297D29AC290130C4004408C907D6
:10032A000130CA07003003180130CB070030031828
:10033A000130CC07003003180130CD07013003101B
:10034A00CD0CCC0CCB0CCA0CFF3E031DA429FF30EC
:10035A004D05031DB129B2299129BE290130C902CF
:10036A000130C4000310CA0DCB0DCC0DCD0DC40B4A
:10037A00B729CC1BC129C229C8290230490203184E
:10038A00C729C829B3294918CB29CC29D429FF3030
:10039A00CA05FF30CB057F30CC05FF30CD050310F1
:1003AA00C90C4908C400C501C601C70118300310A9
:1003BA00C40DC50DC60DC70DFF3E031DDC2944083B
:1003CA00CA044508CB044608CC044708CD044808AB
:1003DA000319F029F129F629C31FF429F529F62969
:1003EA00CD174D08C3004C08C2004B08C1004A088B
:1003FA00C00008007308803983120313A000200884
:10040A00F8007308A0002007A1002108FA00F21FD3
:10041A000F2A102A112A7A147A080319152A162A79
:10042A00262A7A0A031D1A2A1B2A232A0030F300D5
:10043A000030F2000030F1000030F000F217F30152
:10044A002E2A0030F3000030F2000030F1000030B4
:10045A00F00077088039A0002008F90079087806AA
:10046A000319382A392A3A2A78177708A000200768
:10047A00A1002108F900F61F432A442A452A7914C3
:10048A0079080319492A4A2A5A2A790A031D4E2A3F
:10049A004F2A572A0030F7000030F6000030F500E6
:1004AA000030F400F617F701622A0030F700003036
:1004BA00F6000030F5000030F4007A0879020318DB
:1004CA00672A682AAC2A781F6B2A6C2A702A80301D
:1004DA00A0002008F8067A08A0002008FB00790886
:1004EA00A0002008FA007B08A0002008F900700884
:1004FA00A0002008FB007408A0002008F0007B0878
:10050A00A0002008F4007108A0002008FB0075086C
:10051A00A0002008F1007B08A0002008F50072085E
:10052A00A0002008FB007608A0002008F2007B0843
:10053A00A0002008F6007308A0002008FB00770836
:10054A00A0002008F3007B08A0002008F700FB01A8
:10055A007908A000A1012108A3007A082002A200BC
:10056A00031CA3032308803AFF0080307F02031D87
:10057A00C02A1A302202031CC32AC42A052B730874
:10058A00720471047004031DCB2ACD2A0130CE2ACD
:10059A00003083120313A0002008FB000030F30090
:1005AA000030F2000030F1000030F0007908A000BD
:1005BA002008FA000B2B7B1CE32AE42AEF2A7B088B
:1005CA0083120313A0000310200C0138A100210894
:1005DA00FB00F12A0310FB0C701CF42AF52AF62AF8
:1005EA00FB17013083120313A000730DF30CF20CF6
:1005FA00F10CF00CA00BFA2A0130A0002008FA072F
:10060A0079087A02031C0A2B0B2BE02A781B0E2B83
:10061A000F2B5E2B7A08031D132B142B1D2B003076
:10062A00F3000030F2000030F1000030F000962CA8
:10063A007408F007750803110318013E0319262BE5
:10064A00F107760803110318013E03192D2BF2074F
:10065A00770803110318013E0319342BF307731C9F
:10066A00372B382B162C7B1C3B2B3C2B472B7B0820
:10067A0083120313A0000310200C0138A1002108E3
:10068A00FB00492B0310FB0C701C4C2B4D2B4E2BE3
:10069A00FB17013083120313A000730DF30CF20C45
:1006AA00F10CF00CA00B522B0130A0002008FA0725
:1006BA00162C7308803AFF007708803A7F02031DE0
:1006CA00702B76087202031D702B75087102031DC8
:1006DA00702B740870020318732B742BCE2BFF3007
:1006EA0083120313A000FF30A100FF30A200FF30E5
:1006FA00A3007408A4007508A5007608A600770868
:10070A00A7007008A4027108031C710F8D2B8E2B91
:10071A00A5027208031C720F932B942BA60273086E
:10072A00031C730F992B9A2BA7022408A0072508EC
:10073A000318250FA12BA22BA10726080318260FA1
:10074A00A72BA82BA20727080318270AA307230801
:10075A00F3002208F2002108F1002008F00080309E
:10076A00A0002008F806FB09FB0A7B08031DBE2B24
:10077A00BF2BDC2B0130F007003003180130F107E2
:10078A00003003180130F207003003180130F30774
:10079A00DC2B7408F0027508031C750FF102760849
:1007AA00031C760FF2027708031C770FF302730813
:1007BA00720471047004031DE32BE42B122C7B08D2
:1007CA00031DE82BE92B122C0030F3000030F20055
:1007DA000030F1000030F000962C01308312031330
:1007EA00A0000310F00DF10DF20DF30DA00BF62B86
:1007FA00FB1F002C012C022C70147B1C052C062CD0
:10080A00092C0314FB0D0B2C0310FB0D7A0803199A
:10081A000F2C102C122C0130FA02F21F152C162C58
:10082A00F22BF901FB1F1A2C1B2C292C7B087F3970
:10083A000319202C212C242CF901F90A292C701CCB
:10084A00272C282C292C212C790803192D2C2E2C05
:10085A00642C0130F007003003180130F107003032
:10086A0003180130F207003003180130F307731C34
:10087A003F2C402C642C700883120313A0007108CB
:10088A00A1007208A2007308A3000130A400230D7E
:10089A00A30CA20CA10CA00CA40B4C2C2308F30053
:1008AA002208F2002108F1002008F0007A0A031950
:1008BA005F2C602C642C0130A0002008FA077A0A09
:1008CA000319682C692C6E2C7A08031D6D2C6E2C6A
:1008DA007C2C0030F3000030F2000030F1000030D0
:1008EA00F0007A08031D7A2C7B2C7C2CF8017A1CE8
:1008FA007F2C802C822CF217882C7F3083120313D2
:10090A00A0002008F2057A0883120313A00003103E
:10091A00200CA1002108F300F81F942C952C962C8A
:10092A00F31708008312031323088039F9007908A2
:10093A00A8002308F9007907FA007A08AE00A21F76
:10094A00A72CA82CA92C2E142E080319AD2CAE2CDA
:10095A00BD2C2E0A031DB22CB32CBB2C0030A300D5
:10096A000030A2000030A1000030A000A217C52C60
:10097A000030A3000030A2000030A1000030A00027
:10098A0027088039F9007908A8062708F9007907A5
:10099A00FA007A08AD00A61FD32CD42CD52C2D141E
:1009AA002D080319D92CDA2CE92C2D0A031DDE2C6B
:1009BA00DF2CE72C0030A7000030A6000030A5008D
:1009CA000030A400A617F12C0030A7000030A600C2
:1009DA000030A5000030A4002D080319F52CF62CD0
:1009EA00FB2C2E08031DFA2CFB2C042D0030A3002F
:1009FA000030A2000030A1000030A000F72F20082C
:100A0A00F9007908F00026080A128A1528210A1224
:100A1A008A11710883120313B4007008B3003308F3
:100A2A00F900FA01FB01FC017C08AC007B08AB0071
:100A3A007A08AA007908A9003408F900FA01FB012A
:100A4A00FC017C08B2007B08B1007A08B000790882
:100A5A00AF002108F9007908F00025080A128A1562
:100A6A0028210A128A11710883120313B40070082C
:100A7A00B3003308F900FA01FB01FC017908A90760
:100A8A007A0803110318013E03194C2DAA077B08A3
:100A9A0003110318013E0319532DAB077C080311F8
:100AAA000318013E03195A2DAC073408F900FA015C
:100ABA00FB01FC017908AF077A0803110318013E0C
:100ACA000319682DB0077B0803110318013E0319A7
:100ADA006F2DB1077C0803110318013E0319762D07
:100AEA00B2072208F9007908F00024080A128A15C8
:100AFA0028210A128A11710883120313B40070089C
:100B0A00B3003308F900FA01FB01FC017908A907CF
:100B1A007A0803110318013E0319942DAA077B08CA
:100B2A0003110318013E03199B2DAB077C0803111F
:100B3A000318013E0319A22DAC073408F900FA0183
:100B4A00FB01FC017908AF077A0803110318013E7B
:100B5A000319B02DB0077B0803110318013E0319CE
:100B6A00B72DB1077C0803110318013E0319BE2DE6
:100B7A00B2070830F9000310A90DAA0DAB0DAC0D90
:100B8A00F90BC02D2108F9007908F00024080A128F
:100B9A008A1528210A128A11710883120313B400D4
:100BAA007008B3003308F9003408FA00FB01FC01AD
:100BBA007908A9077A0803110318013E0319E62DDB
:100BCA00AA077B0803110318013E0319ED2DAB0791
:100BDA007C0803110318013E0319F42DAC07200801
:100BEA00F9007908F00025080A128A1528210A1244
:100BFA008A11710883120313B4007008B300330812
:100C0A00F9003408FA00FB01FC017908A9077A08FF
:100C1A0003110318013E0319132EAA077B080311B7
:100C2A000318013E03191A2EAB077C080311031897
:100C3A00013E0319212EAC070830F9000310A90D53
:100C4A00AA0DAB0DAC0DF90B232E2008F90079087B
:100C5A00F00024080A128A1528210A128A1171083A
:100C6A0083120313B4007008B3003308F900340880
:100C7A00FA00FB01FC017908A9077A080311031895
:100C8A00013E0319492EAA077B0803110318013EE6
:100C9A000319502EAB077C0803110318013E0319F0
:100CAA00572EAC072108F9007908F00026080A1225
:100CBA008A1528210A128A11710883120313B400B3
:100CCA007008B3003308F9003408FA00FB01FC018C
:100CDA007908AF077A0803110318013E0319762E23
:100CEA00B0077B0803110318013E03197D2EB107D3
:100CFA007C0803110318013E0319842EB207220847
:100D0A00F9007908F00025080A128A1528210A1222
:100D1A008A11710883120313B4007008B3003308F0
:100D2A00F9003408FA00FB01FC017908AF077A08D8
:100D3A0003110318013E0319A32EB0077B08031100
:100D4A000318013E0319AA2EB1077C0803110318E0
:100D5A00013E0319B12EB2072208F9007908F00002
:100D6A0026080A128A1528210A128A117108831282
:100D7A000313B4007008B3003308F9003408FA000A
:100D8A00FB01FC0108300310F90DFA0DFB0DFC0DF7
:100D9A00FF3E031DC82E7908AF077A08031103180E
:100DAA00013E0319D92EB0077B0803110318013E2F
:100DBA000319E02EB1077C0803110318013E031939
:100DCA00E72EB2072908F9002A08FA002B08FB00C7
:100DDA002C08FC0018300310FC0CFB0CFA0CF90C64
:100DEA00FF3E031DF02E7908AF077A080311031896
:100DFA00013E0319012FB0077B0803110318013EB6
:100E0A000319082FB1077C0803110318013E0319BF
:100E1A000F2FB2070830F9000310A90DAA0DAB0D68
:100E2A00AC0DF90B112F2E082D07F900FA01FA0D56
:100E3A007908823EB3007A080318013EFF3EB400E7
:100E4A00432F0130F9000310AF0DB00DB10DB20DF3
:100E5A00F90B282FAC1F322F332F342F2F140130C8
:100E6A00F9000310A90DAA0DAB0DAC0DF90B362F25
:100E7A00FF30B3070318B40AFF30B407B11F462F77
:100E8A00472F262FAD01AC1F4B2F4C2F682FFF3059
:100E9A002905F900FF302A05FA00FF302B05FB006F
:100EAA007F302C05FC007C087B047A047904031942
:100EBA005F2F602F632FAD01AD0A682F2F1C662F9D
:100ECA00672F682F602F2D0803196C2F6D2F9E2F07
:100EDA000130AF07003003180130B00700300318A3
:100EEA000130B107003003180130B207321C7E2FDF
:100EFA007F2F9E2F2F08F9003008FA003108FB00D7
:100F0A003208FC000130FD007C0DFC0CFB0CFA0CD5
:100F1A00F90CFD0B892F7C08B2007B08B1007A0816
:100F2A00B0007908AF000130B3070318B40A0030E3
:100F3A00B4073408803AFF0080307F02031DA72FD0
:100F4A00FF303302031CAA2FAB2FB62F7F30831238
:100F5A000313B2008030B1000030B0000030AF009F
:100F6A00EB2F831203133408803AFF0080307F028C
:100F7A00031DC12F013033020318C42FC52FD12FEF
:100F8A00003083120313B2000030B1000030B00009
:100F9A000030AF00A801EB2F831203133308F900C6
:100FAA007908AE00FF30AF05FF30B0057F30B105DC
:100FBA000030B2052E1CE22FE32FE42FB1172E08C2
:100FCA00F9000310790CFA007A08B2002808F9002F
:100FDA007908B2043208A3003108A2003008A1003F
:100FEA002F08A000080083120313EE01EF0183010A
:060FFA000A128A15952D74
:1011BE00803083120313DC066008F3005F08F20030
:1011CE005E08F1005D08F0005C08F7005B08F600B1
:1011DE005A08F5005908F4000A128A11FF210A1262
:1011EE008A15730883120313DC007208DB00710882
:1011FE00DA007008D9000800F401F501701C082906
:10120E0009290F297208F4070318F50A7308F50760
:10121E0001300310F20DF30DFF3E031D10290130B6
:10122E000310F10CF00CFF3E031D1729700871041A
:10123E00031D2229232905297508F1007408F000E1
:10124E000800F800F401F5017008F200F3017208CD
:10125E00F6007308F700781C352936293C297608E4
:10126E00F4070318F50A7708F50701300310F60D99
:10127E00F70DFF3E031D3D290310F80C7808031DE2
:10128E0049294A2932297508F1007408F00008002E
:10129E00700871040319542955298429F501F50A9A
:1012AE00632901300310F00DF10DFF3E031D592986
:1012BE000130F4007408F507F11F662967295829D3
:1012CE0071087302031D6D2970087202031C7029C8
:1012DE00712977297008F2027108031CF303F302D7
:1012EE0001300310F10CF00CFF3E031D7829013084
:1012FE00F502031D8329842967297308F1007208FA
:10130E00F0000800FB01FC01760877040319902910
:10131E009129C829FD01FD0A9F2901300310F60D00
:10132E00F70DFF3E031D95290130FA007A08FD07DF
:10133E00F71FA229A329942901300310FB0DFC0DE0
:10134E00FF3E031DA42977087902031DB0297608F4
:10135E007802031CB329B429BB297608F802770852
:10136E00031CF903F9027B1401300310F70CF60C81
:10137E00FF3E031DBC290130FD02031DC729C829EC
:10138E00A3297C08F7007B08F600080000307005E2
:10139E00F80000307105F90080307205FA007F30D8
:1013AE007305FB007B087A0479047804031DE02999
:1013BE00E129E9290030F3000030F2000030F1009D
:1013CE000030F00000307405F80000307505F900AB
:1013DE0080307605FA007F307705FB007B087A04B3
:1013EE0079047804031DFC29FD29052A0030F70035
:1013FE000030F6000030F5000030F4007708730678
:10140E00031D132A76087206031D132A750871062A
:10141E00031D132A740870060319162A172A192A8F
:10142E0003101A2A03140800831203132308F3006F
:10143E002208F2002108F1002008F0000030F70029
:10144E000030F6000030F5000030F4000A128A1564
:10145E00CD210A128A15031C352A362A3F2A8312F9
:10146E0003132408840083138001840A80016E2AEA
:10147E008312031323087F39FC00FD010310FC0DBA
:10148E00FD0D240884007C0883138000840A7D08E7
:10149E008000220D220D0139FC00FD01240884007C
:1014AE007C088004840A7D0880042408840082302D
:1014BE008007840F00080318000AFF00FF307F0723
:1014CE0080008403230880393F38A300A21308004C
:1014DE00831203135108A3005008A2004F08A10065
:1014EE004E08A0005730D2005208A4000A128A15E6
:1014FE001B220A128A1583120313D81F872A882AE1
:10150E00912A0030D1000030D0000030CF000030E2
:10151E00CE00CA2A003058021D3003195702031C90
:10152E00992A9A2A9B2ACA2A5108B8005008B7004D
:10153E004F08B6004E08B5000A128A1125200A126D
:10154E008A15831203133808C3003708C200360801
:10155E00C1003508C00001300A128A1143210A1257
:10156E008A15831203134308D6004208D50041089A
:10157E00D4004008D3005608D1005508D0005408B6
:10158E00CF005308CE000800831203136408D10065
:10159E006308D0006208CF006108CE000A128A15D7
:1015AE006F220A128A15831203135108DC005008A9
:1015BE00DB004F08DA004E08D9006408E00063082B
:1015CE00DF006208DE006108DD000A128A15DF20E6
:1015DE000A128A15831203135C08E8005B08E70001
:1015EE005A08E6005908E5006808F3006708F2009B
:1015FE006608F1006508F0006408F7006308F6005D
:10160E006208F5006108F4000A128A11FF210A121D
:10161E008A15730883120313E4007208E30071083D
:10162E00E2007008E1006408D1006308D00062088F
:10163E00CF006108CE000A128A156F220A128A158F
:10164E00831203135108E4005008E3004F08E20030
:10165E004E08E10008008316031327088039831211
:10166E000313E900690883160313AC0027088312DD
:10167E000313E9006907EA006A0883160313B3002F
:10168E00A61F4A2B4B2B4C2B331433080319502B0C
:10169E00512B612B330A031D552B562B5E2B00301D
:1016AE00A7000030A6000030A5000030A400A61749
:1016BE00A701692B0030A7000030A6000030A5005E
:1016CE000030A4002308803983120313E90069084F
:1016DE0083160313AC06230883120313E90069076C
:1016EE00EA006A0883160313B400A21F7F2B802B17
:1016FE00812B341434080319852B862B962B340A30
:10170E00031D8A2B8B2B932B0030A3000030A200DD
:10171E000030A1000030A000A217A3019E2B0030C4
:10172E00A3000030A2000030A1000030A00023086A
:10173E00220421042004031DA52BA62BC32B00304D
:10174E00A7000030A6000030A5000030A4008030B5
:10175E00A6047F30A7042C0883120313E90069083E
:10176E0083160313A7042708A3002608A200250842
:10177E00A1002408A000942D3308031DC72BC82BED
:10178E00D12B0030A3000030A2000030A1000030A9
:10179E00A000942D330883120313E900EA016A08AE
:1017AE00EC00831603133408831203136902EB0053
:1017BE00031CEC036B087F3E83160313AD008312EC
:1017CE0003136C080318013E003E83160313AE008C
:1017DE002708AB002608AA002508A9002408A8009F
:1017EE000030A7000030A6000030A5000030A40095
:1017FE000030B2000030B1000030B0000030AF0059
:10180E00B4016B2C340803190D2C0E2C402C013016
:10181E0083120313E900031083160313A80DA90DF9
:10182E00AA0DAB0D83120313E90B122C0130E90044
:10183E00031083160313A40DA50DA60DA70D831279
:10184E000313E90B1F2C83160313B21F2F2C302CFE
:10185E00312C2414013083120313E9000310831674
:10186E000313AF0DB00DB10DB20D83120313E90BBF
:10187E00352C8316031323082B02031D502C22082C
:10188E002A02031D502C21082902031D502C20086A
:10189E002802031C532C542C632C32172008A80248
:1018AE002108031C210FA9022208031C220FAA02E1
:1018BE002308031C230FAB02013083120313E9002C
:1018CE00690883160313B4071A303402031C702CF4
:1018DE00712C092C2B082A04290428040319782CAE
:1018EE00792CA82C2F14A82C013083120313E90095
:1018FE00031083160313A40DA50DA60DA70D8312B9
:10190E000313E90B7F2C83160313B21F8F2C902C1D
:10191E00912C2414013083120313E9000310831653
:10192E000313AF0DB00DB10DB20D83120313E90BFE
:10193E00952CFF3083160313AD070318AE0AFF3044
:10194E00AE07A61FAB2CAC2C7B2CB401B21FB02C57
:10195E00B12CDF2CFF302F0583120313E900FF306B
:10196E0083160313300583120313EA00FF30831628
:10197E000313310583120313EB007F308316031319
:10198E00320583120313EC006C086B046A046904BD
:10199E000319D22CD32CD82C83160313B401B40AFA
:1019AE00DF2C83160313241CDD2CDE2CDF2CD32C12
:1019BE0034080319E32CE42C312D0130A407003038
:1019CE0003180130A507003003180130A6070030B8
:1019DE0003180130A707271CF52CF62C312D2408EF
:1019EE0083120313E90083160313250883120313CE
:1019FE00EA0083160313260883120313EB008316E3
:101A0E000313270883120313EC000130ED006C0D55
:101A1E00EC0CEB0CEA0CE90CED0B0E2D6C0883169E
:101A2E000313A700831203136B0883160313A60078
:101A3E00831203136A0883160313A500831203137C
:101A4E00690883160313A4000130AD070318AE0A0C
:101A5E000030AE072E08803AFF0080307F02031D53
:101A6E003A2DFF302D02031C3D2D3E2D4C2DFF3007
:101A7E0083160313AD000030AE000030A700003017
:101A8E00A6000030A5000030A400831603132E0814
:101A9E00803AFF0080307F02031D572D01302D024A
:101AAE0003185A2D5B2D682D83160313AD01AE015D
:101ABE000030A7000030A6000030A5000030A400C2
:101ACE00AC01831603132D0883120313E900690872
:101ADE0083160313B300331C752D762D782DA617A0
:101AEE00802D7F3083120313E900690883160313D8
:101AFE00A605330883120313E9000310690CEA00EC
:101B0E006A0883160313A7002C0883120313E90037
:101B1E00690883160313A704BA2B08000130831635
:101B2E0003178800890183160313051488018701A2
:101B3E008601831203138601870188018030831684
:101B4E0003139F008130831203139F008316031328
:101B5E009F17B12DB22DB32D831203139F149F180F
:101B6E00B92DBA2DB62D1E0883160313BA001E0802
:101B7E00B9004430A3007F30A200C030A100003075
:101B8E00A0000530F2000030F3003A08F1003908E9
:101B9E00F0000A128A1503210A128A15700883169C
:101BAE000313B5007108B600B701B80138088312E7
:101BBE000313C30083160313370883120313C200E3
:101BCE0083160313360883120313C10083160313FF
:101BDE00350883120313C00000300A128A11432104
:101BEE000A128A1583120313430883160313A700E0
:101BFE0083120313420883160313A60083120313E2
:101C0E00410883160313A50083120313400883169D
:101C1E000313A4000A128A1532230A128A15831698
:101C2E0003132308C4002208C3002108C2002008A1
:101C3E00C1004230A300C830A2000030A100003025
:101C4E00A000423083120313A300C830A20000305C
:101C5E00A1000030A000831603134408831203135F
:101C6E00A70083160313430883120313A6008316DB
:101C7E000313420883120313A500831603134108AE
:101C8E0083120313A4000A128A1197240A128A15CA
:101C9E00831203132308E4002208E3002108E20064
:101CAE002008E1000A128A15CB220A128A15831225
:101CBE000313640883160313A70083120313630828
:101CCE0083160313A60083120313620883160313ED
:101CDE00A50083120313610883160313A4000A12CE
:101CEE008A1532230A128A15831603132308C80095
:101CFE002208C7002108C6002008C5004408F300CA
:101D0E004308F2004208F1004108F0003F30F700AE
:101D1E008030F6000030F5000030F4000A128A110F
:101D2E00A1200A128A1503189D2E9E2E382F831677
:101D3E000313480883120313A700831603134708DF
:101D4E0083120313A600831603134608831203138C
:101D5E00A50083160313450883120313A400443011
:101D6E00A3007A30A2000030A1000030A0000A12B9
:101D7E008A1197240A128A15831203132308B800B6
:101D8E002208B7002108B6002008B5000A128A11F1
:101D9E0025200A128A15831203133608831603139D
:101DAE00CC0083120313350883160313CB004C08A3
:101DBE00F3004B08F2006430F0000030F1000A121C
:101DCE008A154F210A128A15710883160313CA0049
:101DDE007008C9000A30F0000030F1004A08F30024
:101DEE004908F2000A128A154F210A128A15710843
:101DFE0083160313BC007008BB006430F60000307D
:101E0E00F7004C08F9004B08F8000A128A158921D0
:101E1E000A128A15770883160313BE007608BD00D2
:101E2E000A30F6000030F7004C08F3004B08F200C1
:101E3E006430F0000030F1000A128A154F210A12A8
:101E4E008A157108F9007008F8000A128A1589219E
:101E5E000A128A15770883160313C0007608BF008E
:101E6E00D12F83160313480883120313A70083167A
:101E7E000313470883120313A600831603134608A1
:101E8E0083120313A500831603134508831203134D
:101E9E00A4004230A300C830A2000030A1000030E0
:101EAE00A0000A128A1197240A128A1583120313AC
:101EBE002308B8002208B7002108B6002008B50094
:101ECE000A128A1125200A128A1583120313360864
:101EDE0083160313CC0083120313350883160313E2
:101EEE00CB006430F6000030F7004C08F9004B08C8
:101EFE00F8000A128A1589210A128A1577088316A4
:101F0E000313BC007608BB000A30F6000030F70061
:101F1E004C08F3004B08F2006430F0000030F10082
:101F2E000A128A154F210A128A157108F9007008D3
:101F3E00F8000A128A1589210A128A157708831663
:101F4E000313BE007608BD004C08F3004B08F200E8
:101F5E006430F0000030F1000A128A154F210A1287
:101F6E008A15710883160313CA007008C9000A3057
:101F7E00F0000030F1004A08F3004908F2000A129E
:101F8E008A154F210A128A15710883160313C00091
:101F9E007008BF003B08B5003507013E84000A12E9
:101FAE008A1103200A128A158312031387008316DF
:101FBE0003133D08B5003507013E84000A128A114D
:101FCE0003200A128A158312031388008316031343
:101FDE003F08B5003507013E84000A128A1103201E
:101FEE000A128A15831203138600B02D0A128A1163
:021FFE000028B9
:04400E00F220FF3F5E
:00000001FF
