:020000040000FA
:100000000A128A11FC2F00308A000408840A820731
:100010000034C0340034F9340034A4340034B03433
:100020000034993400349234003482340034F8348B
:0A00300000348034003490340034B2
:100DA600700871040319D82ED92E082FF501F50AFB
:100DB600E72E01300310F00DF10DFF3E031DDD2E71
:100DC6000130F4007408F507F11FEA2EEB2EDC2E35
:100DD60071087302031DF12E70087202031CF42EB3
:100DE600F52EFB2E7008F2027108031CF303F302C2
:100DF60001300310F10CF00CFF3E031DFC2E0130F8
:100E0600F502031D072F082FEB2E7308F100720859
:100E1600F0000800FB01FC01760877040319142F83
:100E2600152F4C2FFD01FD0A232F01300310F60D5F
:100E3600F70DFF3E031D192F0130FA007A08FD0752
:100E4600F71F262F272F182F01300310FB0DFC0D3F
:100E5600FF3E031D282F77087902031D342F7608DD
:100E66007802031C372F382F3F2F7608F8027708B1
:100E7600031CF903F9027B1401300310F70CF60C7E
:100E8600FF3E031D402F0130FD02031D4B2F4C2F4B
:100E9600272F7C08F7007B08F60008000130831630
:100EA6000317880089018316031305148801870137
:100EB6008601831203138601870188018030831619
:100EC60003139F008130831203139F006A2F6B2F39
:100ED6006C2F831203139F149F18722F732F6F2F7B
:100EE600831603131E0883120313A000A101200812
:100EF600AA002108AB006430F6000030F7002B088A
:100F0600F9002A08F8000A128A110D270A128A1116
:100F1600770883120313A3007608A2000A30F600AE
:100F26000030F7002B08F3002A08F2006430F000C6
:100F36000030F1000A128A11D3260A128A117108AA
:100F4600F9007008F8000A128A110D270A128A1190
:100F5600770883120313A5007608A4002B08F30074
:100F66002A08F2006430F0000030F1000A128A11FB
:100F7600D3260A128A11710883120313A900700876
:100F8600A8000A30F0000030F1002908F300280814
:100F9600F2000A128A11D3260A128A1171088312E4
:100FA6000313A7007008A6002208A0002007013E30
:100FB60084000A128A1103200A128A118700240863
:100FC600A0002007013E84000A128A1103200A129B
:100FD6008A1188002608A0002007013E84000A1214
:100FE6008A1103200A128A118600692F0A128A11B1
:0A0FF600002883010A128A11512F0E
:04400E00F220FF3F5E
:00000001FF
