:020000040000FA
:060000000A128A11122809
:10000800FE00030E83120313A9000408AA000A08BD
:10001800AB007F08AC000A128A1119280A128A114B
:10002800152883010A128A11E92906181C281D2897
:100038002B28061C202821281D281830F8000030FD
:10004800F9000A128A11A3200A128A119628861822
:100058002E282F285228861C322833282F28023091
:10006800AD000030AE0041283C30F8000030F90007
:100078000A128A110C210A128A1101308312031301
:10008800AD020030031CAE03AE022D0A031D50283A
:100098002E0A031D50285128382896280619552855
:1000A80056289628061D59285A2856280330AF0086
:1000B8000030B0008328FF308800870003308312A7
:1000C8000313A8008A30A7005530A600A60B6A289B
:1000D800A70B6A28A80B6A280A128A111E220A127C
:1000E8008A11033083120313A8008A30A700553001
:1000F800A600A60B7D28A70B7D28A80B7D2801301C
:1001080083120313AF020030031CB003B0022F0A9E
:10011800031D9228300A031D922893285F28FF3078
:1001280088008700831203132C08FF002B088A001D
:100138002A088400290E8300FE0E7E0E0900831211
:100148000313A401A501A001A101A201A301220892
:10015800FA007A07013E84000A128A1104220A1260
:100168008A11FB007B0788002008FA007A07013E05
:1001780084000A128A1104220A128A118700413067
:10018800FB00EE30FA00FA0BC728FB0BC72800006B
:10019800013083120313A4070318A50A0030A5072A
:1001A8000A30F0000030F1002508F3002408F200BE
:1001B8000A128A116B210A128A1171088312031319
:1001C800A1007008A0000A30F0000030F1002508F6
:1001D800F3002408F2000A128A11AF210A128A11C8
:1001E800710883120313A3007008A2000130F802FB
:1001F8000030031CF903F902780A031D0729790A5C
:10020800031D07290829AB28FF308800870008004C
:1002180083120313A201A3010A30F0000030F10099
:100228007908F3007808F2000A128A116B210A1281
:100238008A11710883120313A1007008A0000A3004
:10024800F0000030F1007908F3007808F2000A1293
:100258008A11AF210A128A11710883120313A300AD
:100268007008A2002208FA007A07013E84000A12E8
:100278008A1104220A128A11FB007B0788002008D1
:10028800FA007A07013E84000A128A1104220A122F
:100298008A1187004130FB00EE30FA00FA0B522930
:1002A800FB0B522900000130F8020030031CF9034F
:1002B800F902780A031D6429790A031D642965294E
:1002C8001029FF3083120313880087000800F50106
:1002D800F60170087104031972297329AA29F70114
:1002E800F70A812901300310F00DF10DFF3E031DBF
:1002F80077290130F4007408F707F11F842985294C
:10030800762901300310F50DF60DFF3E031D8629F1
:1003180071087302031D922970087202031C952943
:1003280096299D297008F2027108031CF303F30251
:10033800751401300310F10CF00CFF3E031D9E29CB
:100348000130F702031DA929AA2985297608F10099
:100358007508F0000800700871040319B429B5295C
:10036800E429F501F50AC32901300310F00DF10D58
:10037800FF3E031DB9290130F4007408F507F11F89
:10038800C629C729B82971087302031DCD29700829
:100398007202031CD029D129D7297008F2027108EA
:1003A800031CF303F30201300310F10CF00CFF3EC1
:1003B800031DD8290130F502031DE329E429C729C3
:1003C8007308F1007208F00008008316031789010A
:1003D8008801FF3083160313950086008113880176
:1003E800870183120313880187018B170B108B1564
:1003F800FF30831603139600002A0A128A11122866
:1004080002308A000408840A82070034C0340034A9
:10041800F9340034A4340034B0340034993400344E
:100428009234003482340034F83400348034003498
:100438009034003418308312031388000E3087007C
:020448000800AA
:04400E00F220FF3F5E
:00000001FF
