:020000040000FA
:100000000A128A11FC2F00308A000408840A820731
:100010000034013405340A3404340A340C3407340F
:1000200000340234043400341234123412340C34E8
:1000300000340C34123400340C34123412340C34C6
:1000400000340C3404340B340134123412340C34C4
:1000500000340234043411340A34043404340434D3
:10006000003499340D341234083414340834143400
:100070001E34003401340A34143400341C34143473
:100080001F34003400340434083400341C34143475
:100090001E3400340E34093409341D340934093453
:1000A0000E340034993454346834693420346B3459
:1000B00000347434203474346834013463342034AC
:1000C0006D3402346E340A340334543456345434A8
:1000D0003134353441342D343134393434343334DB
:1000E00036343434383431340A344E346734753469
:1000F000793400346E342034543401346E34203476
:1001000050346834023470340A344B34543420345C
:100110007634693420347834033420346C34043435
:020120000A349F
:1008D000F400F201F3017208740784000A128A110D
:1008E00003200A128A110A3A031D772C782C792CDE
:1008F000802C0130F2070318F30A0030F3076B2C49
:100900007308F1007208F0000800F8007608031977
:100910008A2C8B2C902C4030F7007708F900912C12
:10092000F9017808F7007708F90779088038F700A7
:100930007708F30000300A128A1102250A128A1180
:100940000A128A11D2240A128A11003A031DA92C14
:10095000AA2CA02C0800C32CFC30831203138F0098
:1009600018308E000C109010831603130C100B130C
:100970008B138312031390121012101510140C1CF9
:10098000C22CC32CBF2C0130F0020030031CF10339
:10099000F102700A031DD02C710A031DD02CD12C3A
:1009A000AC2C08008316031308168816081788173E
:1009B00083120313081588100630F000F00BDE2CAC
:1009C00000008312031388150630F000F00BE62CAC
:1009D0000000003083120313881B0130F1008811DE
:1009E0000630F000F00BF22C000083120313881580
:1009F0000630F000F00BFA2C00008312031388116C
:100A000071080800F50083160313081288120813F2
:100A10008813750803190D2D0E2D122D8312031343
:100A20008814152D8312031388100630F400F40B7C
:100A3000172D00008312031308110630F400F40B85
:100A40001F2D00008312031388117308F400043073
:100A50000310F40CFF3E031D282D74080A128A119E
:100A60003B250A128A1173080F390A128A113B2595
:100A70000A128A110800F100831603130812881263
:100A8000081388137108F0007008F2007218492DDD
:100A90004D2D831203130816502D831203130812D1
:100AA000F218532D572D8312031388165A2D8312D3
:100AB0000313881272195D2D612D83120313081719
:100AC000642D831203130813F219672D6B2D831203
:100AD000031388176E2D8312031388130630F0005A
:100AE000F00B702D00008312031388150630F00000
:100AF000F00B782D00008312031388110800F90011
:100B0000F701F8014030F6007608F30000300A12D1
:100B10008A1102250A128A110A128A11D2240A1293
:100B20008A11003A031D952D962D8C2DB82D77082E
:100B3000790784000A128A1103200A128A11F6002A
:100B40007608F30001300A128A1102250A128A116E
:100B50000A128A11D2240A128A11003A031DB12DF9
:100B6000B22DA82D0130F7070318F80A0030F80756
:100B70007708790784000A128A1103200A128A1161
:100B8000993A031DC42DC52D972D0800FC000E2E8B
:100B9000F301F30A00300A128A1102250A128A119F
:100BA0000A128A11D2240A128A11003A031DD92D81
:100BB000DA2DD02D212EF601F60A00300A128A1104
:100BC00085240A128A11212E1030FA007A08F300C7
:100BD00000300A128A1102250A128A110A128A1199
:100BE000D2240A128A11003A031DF72DF82DEE2D9A
:100BF000212E7C08FA007A08F30001300A128A11CB
:100C000002250A128A110A128A11D2240A128A11A2
:100C1000003A031D0C2E0D2E032E212E7C08FA0007
:100C2000FB017B08003A0319162EF92D7A08083AC1
:100C30000319E42D023A0319DB2D063A0319C82DD6
:100C4000F92D080083160313881188100811081263
:100C50008812081388131430F7007930F600F60B69
:100C60002F2EF70B2F2E342E83120313881008110A
:100C7000881103300A128A113B250A128A110D309D
:100C8000F700FB30F600F60B432EF70B432E482EF1
:100C900003300A128A113B250A128A110D30F7001F
:100CA000FB30F600F60B522EF70B522E572E033068
:100CB0000A128A113B250A128A110D30F700FB3007
:100CC000F600F60B612EF70B612E662E02300A122B
:100CD0008A113B250A128A110A128A11D2240A1299
:100CE0008A11003A031D752E762E6C2E2830F600E0
:100CF0007608F30000300A128A1102250A128A11BE
:100D00000A128A11D2240A128A11003A031D892E6E
:100D10008A2E802E0C30F6007608F30000300A127E
:100D20008A1102250A128A110A128A11D2240A1281
:100D30008A11003A031D9D2E9E2E942EF301F30A74
:100D400000300A128A1102250A128A110A128A1127
:100D5000D2240A128A11003A031DAF2EB02EA62EFD
:100D60000630F6007608F30000300A128A110225D8
:100D70000A128A110A128A11D2240A128A11003A1E
:100D8000031DC32EC42EBA2E080083160317890133
:100D90008801831603130614861406158113073081
:100DA0009500831203130618D62ED72E692F061C22
:100DB000DA2EDB2ED72E0A128A1122260A128A1167
:100DC0002A300A128A117F250A128A110C300A125F
:100DD0008A11C6250A128A11F60100300A128A11F8
:100DE00085240A128A116D300A128A1168240A12A7
:100DF0008A11710883120313A1007008A000A201D8
:100E0000A301172F22086D3E84000A128A110320C5
:100E10000A128A110A128A11C6250A128A11013091
:100E200083120313A2070318A30A0030A3072108A3
:100E30002302031D1D2F20082202031C202F212F17
:100E4000022F5C300A128A1168240A128A11710872
:100E500083120313A1007008A000F601F60A003007
:100E60000A128A1185240A128A1183120313A2011D
:100E7000A3014F2F22085C3E84000A128A1103202E
:100E80000A128A110A128A11C6250A128A11013021
:100E900083120313A2070318A30A0030A307210833
:100EA0002302031D552F20082202031C582F592FFF
:100EB0003A2FE830F0000330F1000A128A11AB2417
:100EC0000A128A110C300A128A11C6250A128A11D6
:100ED000D12E86186C2F6D2FD12E861C702F712F5E
:100EE0006D2F0A128A1122260A128A1101300A1263
:100EF0008A117F250A128A11F60100300A128A111E
:100F000085240A128A114B300A128A1168240A12A7
:100F10008A11710883120313A1007008A000A201B6
:100F2000A301A72F22084B3E84000A128A11032036
:100F30000A128A110A128A11C6250A128A11013070
:100F400083120313A2070318A30A0030A307210882
:100F50002302031DAD2F20082202031CB02FB12F46
:100F6000922F7D300A128A1168240A128A117108A0
:100F700083120313A1007008A000F601F60A0230E4
:100F80000A128A1185240A128A1183120313A201FC
:100F9000A301DF2F22087D3E84000A128A1103205C
:100FA0000A128A110A128A11C6250A128A11013000
:100FB00083120313A2070318A30A0030A307210812
:100FC0002302031DE52F20082202031CE82FE92F2E
:100FD000CA2FD030F0000730F1000A128A11AB247A
:100FE0000A128A110C300A128A11C6250A128A11B5
:100FF000D12E0A128A11002883010A128A11C52EE5
:04400E00F220FF3F5E
:00000001FF
