:020000040000FA
:060000000A128A11F82F1C
:100D4400831203132808A1002708A0000A128A119D
:100D540030270A128A11831203132808A1002708D6
:100D6400A0000A128A1172270A128A110800780850
:100D740079040319BE2EBF2EEE2EFD01FD0ACD2EE1
:100D840001300310F80DF90DFF3E031DC32E013091
:100D9400FC007C08FD07F91FD02ED12EC22E790845
:100DA4007B02031DD72E78087A02031CDA2EDB2E71
:100DB400E12E7808FA027908031CFB03FB020130D8
:100DC4000310F90CF80CFF3E031DE22E0130FD0266
:100DD400031DED2EEE2ED12E7B08F9007A08F800C3
:100DE40008008316031789018801831603138801F9
:100DF4008701831203138801870181010B11831674
:100E04000313811601128B120B138B138115051614
:100E14008312031301080319102F112F0A2F8101C4
:100E24003230A9070318AA0A0030AA0703302A029D
:100E3400E93003192902031C202F212F232FA90194
:100E4400AA012A08A8002908A7000A128A11A226C2
:100E54000A128A110A2F0A128A110028E830F000B7
:100E64000330F100831203132108F3002008F20079
:100E74000A128A11B4270A128A1171088312031301
:100E8400A4007008A3000A30F8000030F9006430B0
:100E9400F0000030F1002108F3002008F2000A12EB
:100EA4008A11B4270A128A117108FB007008FA002B
:100EB4000A128A11B9260A128A11790883120313B5
:100EC400A6007808A5002308A20003300310A20D91
:100ED400FF3E031D682F0310220D25048700080020
:100EE4000A30F8000030F9000A30F0000030F10058
:100EF400831203132108F3002008F2000A128A1156
:100F0400B4270A128A117108FB007008FA000A1249
:100F14008A11B9260A128A11790883120313A400CC
:100F24007808A3000A30F8000030F9002108FB001B
:100F34002008FA000A128A11B9260A128A117908BD
:100F440083120313A6007808A5002508A200033025
:100F54000310A20DFF3E031DAA2F0310220D23042C
:100F640088000800F501F601700871040319BB2F0D
:100F7400BC2FF32FF701F70ACA2F01300310F00D2D
:100F8400F10DFF3E031DC02F0130F4007408F70774
:100F9400F11FCD2FCE2FBF2F01300310F50DF60D0D
:100FA400FF3E031DCF2F71087302031DDB2F700852
:100FB4007202031CDE2FDF2FE62F7008F202710885
:100FC400031CF303F302751401300310F10CF00C4D
:100FD400FF3E031DE72F0130F702031DF22FF32F0D
:100FE400CE2F7608F1007508F00008008312031371
:0C0FF400A901AA0183010A128A11F32E40
:04400E00F220FF3F5E
:00000001FF
