:020000040000FA
:060000000A128A110E280D
:10000800FE00030E83120313A6000A08A7000A12B3
:100018008A11DA290A128A11112883010A128A110F
:10002800162A83120313BD01BE01B901BA01BB012F
:10003800BC013A08B5003908B400B40EB50EF0306A
:10004800B50534080F39B504F030B4053B0834045D
:10005800B7003C083504B80037088800023083121E
:100068000313B6008630B5009830B400B40B3A28B4
:10007800B50B3A28B60B3A28000001308312031357
:10008800BD070318BE0A0030BE070A30AA000030B8
:10009800AB003E08AD003D08AC000A128A11DA2018
:1000A8000A128A11831203132B08BA002A08B9000E
:1000B8000A30AA000030AB003E08AD003D08AC0095
:1000C8000A128A1164210A128A11831203132B0857
:1000D800BC002A08BB000130B2020030031CB30385
:1000E800B302320A031D7C28330A031D7C287D28AD
:1000F8001D28080083120313A201A301A401A5016E
:100108000A30F0000030F1007908F3007808F200B6
:100118000A128A1120210A128A1171088312031304
:10012800A3007008A2000A30F0000030F10079083E
:10013800F3007808F2000A128A11A0210A128A1123
:10014800710883120313A5007008A4002308FB009C
:100158002208FA00FA0EFB0EF030FB057A080F3978
:10016800FB04F030FA0524087A04A00025087B0473
:10017800A100200888000230FC008630FB0099307E
:10018800FA00FA0BC528FB0BC528FC0BC528013063
:10019800F8020030031CF903F902780A031DD82875
:1001A800790A031DD828D928842808008312031344
:1001B800AF01B0012A082B040319E328E4281B29FE
:1001C800B101B10AF22801300310AA0DAB0DFF3EB0
:1001D800031DE8280130AE002E08B107AB1FF52833
:1001E800F628E72801300310AF0DB00DFF3E031DC0
:1001F800F7282B082D02031D03292A082C02031CAB
:10020800062907290E292A08AC022B08031CAD036E
:10021800AD022F1401300310AB0CAA0CFF3E031DD6
:100228000F290130B102031D1A291B29F6283008AD
:10023800AB002F08AA000800F501F6017008710448
:100248000319272928295F29F701F70A36290130D8
:100258000310F00DF10DFF3E031D2C290130F400B1
:100268007408F707F11F39293A292B29013003109F
:10027800F50DF60DFF3E031D3B2971087302031DA2
:10028800472970087202031C4A294B295229700811
:10029800F2027108031CF303F30275140130031012
:1002A800F10CF00CFF3E031D53290130F702031D2A
:1002B8005E295F293A297608F1007508F0000800E0
:1002C800831203132A082B0403196B296C299B2911
:1002D800AF01AF0A7A2901300310AA0DAB0DFF3E1A
:1002E800031D70290130AE002E08AF07AB1F7D2912
:1002F8007E296F292B082D02031D84292A082C0228
:10030800031C872988298E292A08AC022B08031C7C
:10031800AD03AD0201300310AB0CAA0CFF3E031D68
:100328008F290130AF02031D9A299B297E292D08A8
:10033800AB002C08AA000800700871040319A5294D
:10034800A629D529F501F50AB42901300310F00DC5
:10035800F10DFF3E031DAA290130F4007408F507CA
:10036800F11FB729B829A92971087302031DBE29ED
:1003780070087202031CC129C229C8297008F20238
:100388007108031CF303F30201300310F10CF00CA5
:10039800FF3E031DC9290130F502031DD429D529C3
:1003A800B8297308F1007208F00008008B100230B9
:1003B800A8000030A900E9291830F8000030F90039
:1003C8000A128A117E200A128A110130831203133D
:1003D800A8020030031CA903A902280A031DF82952
:1003E800290A031DF829F929E02927088A00260E79
:1003F8008300FE0E7E0E090083160317890188010B
:10040800831603138801FF30831203138800013019
:10041800831603139500860081138B178B100B1618
:10042800011708000A128A1100220A128A113C30A8
:1004380083120313B2000030B3000A128A11152088
:0C0448000A128A11162A0A128A110E28C4
:04400E00F220FF3F5E
:00000001FF
