:020000040000FA
:060000000A128A11FC2F18
:100F0E008316031789018801073083160313950092
:100F1E008600081081138312031308140800831629
:100F2E0003130715871483120313910118308316C8
:100F3E000313920007308312031395000C309700B1
:100F4E009D0197161712831603130711871083122C
:100F5E0003138710920192101214121508008316B3
:100F6E000313071587148312031391011830831688
:100F7E00031392001130831203139B000C309D005B
:100F8E0097019D161D1283160313871007118312E6
:100F9E0003130711920192101214121508000A126F
:100FAE008A1187270A128A11831203130618E02F5B
:100FBE00E12FEB2F061CE42FE52FE12F0A128A11E9
:100FCE0096270A128A11DB2F8618EE2FEF2FDB2FB2
:100FDE00861CF22FF32FEF2F0A128A11B6270A1250
:100FEE008A11DB2F0A128A11002883010A128A1134
:020FFE00D62FEC
:04400E00F220FF3F5E
:00000001FF
